:020000040000FA
:0400000007EF00F016
:10000800208209ED00F035EF01F00600F2A40FEFB1
:1000180000F011EF00F08EEF00F0F294184A192A60
:10002800164A172A144A152A124A132A4B0E12186E
:100038001310D8A422EF00F024EF00F037EF00F0FF
:100048001150DBEC00F0112A050E1118D8A42FEF7F
:1000580000F031EF00F033EF00F0010E116E000EEA
:10006800136E000E126EE80E181807E1030E191829
:10007800D8A441EF00F043EF00F053EF00F01C2A42
:100088000A0E1C18D8A44BEF00F04DEF00F04FEF0C
:1000980000F0000E1C6E000E196E000E186E100E89
:1000A800161807E1270E1718D8A45DEF00F05FEFC8
:1000B80000F06FEF00F01B2A060E1B18D8A467EF9C
:1000C80000F069EF00F06BEF00F0000E1B6E000E01
:1000D800176E000E166E600E141807E1EA0E15185A
:1000E800D8A479EF00F07BEF00F08BEF00F01A2A2C
:1000F8000A0E1A18D8A483EF00F085EF00F087EFF6
:1001080000F0000E1A6E000E156E000E146ED76801
:10011800050ED66E2092110014EC01F01104D8A43B
:1001280098EF00F09AEF00F0A4EF00F0010E1C2405
:10013800D96EDA6A000EDA22DF508C6E92EF00F088
:10014800020E1118D8A4ABEF00F0ADEF00F0B1EF3C
:1001580000F001C08CFF92EF00F0030E1118D8A434
:10016800B8EF00F0BAEF00F0C4EF00F0010E1A2467
:10017800D96EDA6A000EDA22DF508C6E92EF00F048
:10018800040E1118D8A4CBEF00F0CDEF00F0D7EF94
:1001980000F0010E1B24D96EDA6A000EDA22DF5055
:1001A8008C6E92EF00F092EF00F007EF00F01F6EF8
:1001B800F6EF00F08D948D808984898A13EF01F021
:1001C8008D848D908984898A13EF01F08D848D80C8
:1001D8008994898A13EF01F08D848D808984899AA6
:1001E80013EF01F01F501D6E1E6A1E50000AD8B48E
:1001F80000EF01F013EF01F01D50010AD8B4DEEF53
:1002080000F0030AD8B4E4EF00F0010AD8B4EAEF2A
:1002180000F0070AD8B4F0EF00F013EF01F0120075
:100228000F0EC16E000E836E000E8C6E000E926E65
:10023800000E956E000E966E8094809A8490849439
:100248008994899A8D908D94D580D592D594D59698
:10025800D59AD59CD768050ED66EF28EF28AF2949E
:100268001200A40EF66E020EF76E000EF86E00EE87
:1002780001F010EE11F00900F5CFEEFFE550E15066
:10028800FAE100EE12F00B0EEE6AE806FDE12090AE
:100298002092000EF86E000190EF00F03F065B4FD1
:0D02A800666D7D077F6F777C395E7971018F
:020000040020DA
:08000000FFFFFFFFFFFFFFFF00
:020000040030CA
:0E000000000C1E1EFF0181FF0FC00FE00F401D
:00000001FF
